:100000000C946E000C94E1010C948B000C948B000A
:100010000C948B000C948B000C948B000C948B0034
:100020000C948B000C948B000C948B000C948B0024
:100030000C948B000C948B000C948B000C948B0014
:100040000C948B000C948B000C948B000C948B0004
:100050000C948B000C948B000C948B000C948B00F4
:100060000C948B000C948B0009022200010100808B
:10007000140904000001030000000921010100012E
:100080002216000705810308006412011001000018
:100090000008C016DF0500010102000114034C0036
:1000A00045004400430074006C00480049004400CF
:1000B00012036F0062006400650076002E0061008C
:1000C0007400040309040600FF0901A101150026BC
:1000D000FF00750895010900B20201C011241FBE7E
:1000E000CFEFD4E0DEBFCDBF11E0A0E0B1E0EAE8A1
:1000F000F6E002C005900D92A230B107D9F721E0D9
:10010000A2E0B1E001C01D92AA33B207E1F70E945C
:1001100023030C9443030C940000CF93C62F20912B
:100120000F0124FF07C02091100138E823272093F6
:10013000100103C02AE520930F01DC01E1E1F1E0A9
:100140009C2F9E0F8D918193892F8E1B1816D4F3AF
:100150006C2F81E191E00E94DD01CC5FC0930F0123
:10016000CF910895CF93DF9380912001835087FD35
:10017000A4C090911D0120911C012D3209F09BC05B
:10018000883009F098C0CCE0D0E0C91BD109CC5D23
:10019000DE4F83EC809304018AE580930101109285
:1001A00002018881807621F0CE010E9402037AC08C
:1001B0009A8110920D018981811106C010920E0161
:1001C0002DE031E082E06AC0853019F4909321017E
:1001D00062C0863009F049C08B81813019F48AE809
:1001E00090E01AC0823041F488E690E090931F01BD
:1001F00080931E0182E235C08330F1F4911108C072
:1002000082EC90E090931F0180931E0184E029C04E
:10021000913041F480EB90E090931F0180931E0198
:1002200082E11FC09230E1F48CE990E090931F01CD
:1002300080931E0184E115C0813241F48AE790E089
:1002400090931F0180931E0189E00BC0823241F41C
:1002500086EC90E090931F0180931E0186E101C01F
:1002600080E090E4909302011DC0883069F08930ED
:1002700019F4909323010FC08A3049F08B3059F460
:100280008BE48093100107C023E231E002C02DE02F
:1002900031E081E003C02DE031E080E030931F01C8
:1002A00020931E019F81911104C09E81981708F42C
:1002B000892F80930001109220018091010184FF19
:1002C0004DC0809100018F3F09F448C0C82F89308C
:1002D00008F0C8E08C1B809300018091040198E82D
:1002E000892780930401CC2361F180911E019091B4
:1002F0001F012091020126FF12C0A5E0B1E024E019
:1003000031E020953095280F391F4C2F4A0FF90105
:10031000EA0FFB1FE491ED934A13F9CF09C0E5E022
:10032000F1E0DC012C2F2E0F3D9131932E13FCCFE9
:1003300001962FEF2C0F820F911D90931F01809338
:100340001E016C2F85E091E00E94DD01CC5FCC3076
:1003500019F08FEF80930001C093010184E199B1FE
:10036000947131F48150D9F71092210110921B0140
:10037000DF91CF910895E9E6F0E08081826080838B
:10038000E89A8BE4809310018AE580930F01089529
:10039000A82FB92F80E090E041E050EA609530E06E
:1003A00009C02D9182279795879510F0842795276E
:1003B000305EC8F36F5FA8F30895EADF8D939D93D5
:1003C0000895CF93CFB7CF93DF93C3954C9BE9F7B5
:1003D0004C9B0BC04C9B09C04C9B07C04C9B05C061
:1003E0004C9B03C04C9B01C08BC06F93C0911D01FF
:1003F000DD27CC5DDE4F2F9365E54C9B03C02F912D
:100400006F91E6CF0F931F934F9320E040E15F93EE
:1004100009B1047104FB27F93F9350E03BE039C078
:10042000147140642F77012F5F5F1EC0406819B1BF
:1004300014712F7752501FC0406409B12F77047197
:10044000D1F15F5F00C023C0406219B12F771471F2
:1004500091F15F5F00C025C004711027515012F464
:100460005D5F0000115027952C3F19B1C8F614713B
:100470000127015027952C3FC8F64227499309B11F
:10048000047110274F73115027952C3FA8F64695FD
:10049000469519B1147179F00127015027952C3F29
:1004A00098F66B5A60F3315009B1B0F600C011E014
:1004B0001CBB002719C03B503195C31BD04011E035
:1004C0001CBB0881033C09F10B34F9F020911B019E
:1004D0001981110F1213EDCF4A81441F093651F1D2
:1004E0000D3211F0013E29F7009322013F915F91F7
:1004F0004F911F910F912F916F91CCB3C0FD65CF9C
:10050000DF91CF91CFBFCF91189520912201222367
:1005100069F310912001112391F5343092F1309359
:10052000200120931C0110911D013BE0311B3093F1
:100530001D0127C00091200101300CF50AE54F7024
:1005400049F43091010134FD1DC000930101C4E064
:10055000D1E01CC030910F0134FD14C000930F0195
:10056000C0E1D1E013C0052710E000C000000BB9C6
:100570001AC0052710E0221F1DC010E021C04AE567
:1005800002C032ED432FC4E1D0E032E01AB1146171
:100590005C9A0BB11AB954E120E865E320FF052706
:1005A0000BB9279517951C3FF0F66695B8F7B1F78C
:1005B00020FF05270BB9279517951C3FD0F62795E7
:1005C000179517FF052700001C3F0BB9B0F62991BE
:1005D0003A9519F70B7E10912101110FC651D040A9
:1005E0000BB911F010931B0111E01CBB00611AB193
:1005F0001B7E402F4B7E54E05A95F1F70BB91AB988
:100600004BB974CFFC01808180768034D1F4818134
:10061000813049F49281892F817090FF02C0289A1D
:1006200010C028980895823061F485B1817080935C
:10063000030183E091E090931F0180931E0181E00C
:10064000089580E008952EE088E190E00FB6F894D8
:10065000A895809360000FBE209360000E94BB01AC
:10066000549A80E0815041F0A895EFE9FFE031977E
:10067000F1F700C00000F6CF5498209A7894A8951E
:0A0680000E94B200FCCFF894FFCFF7
:02068A00FF5A15
:00000001FF
