:100000000C946E000C940E020C948B000C948B00DC
:100010000C948B000C948B000C948B000C948B0034
:100020000C948B000C948B000C948B000C948B0024
:100030000C948B000C948B000C948B000C948B0014
:100040000C948B000C948B000C948B000C948B0004
:100050000C948B000C948B000C948B000C948B00F4
:100060000C948B000C948B0009022200010100808B
:100070000A09040000010300000009210101000138
:100080002216000705810308006412011001000018
:100090000008C016DF05000101020001140344003E
:1000A000610074006100530074006F00720065000D
:1000B00012036F0062006400650076002E0061008C
:1000C0007400040309040600FF0901A101150026BC
:1000D000FF00750895800900B20201C011241FBEFF
:1000E000CFEFD4E0DEBFCDBF11E0A0E0B1E0EEE89D
:1000F000F7E002C005900D92A230B107D9F721E0D8
:10010000A2E0B1E001C01D92AB33B207E1F70E945B
:100110007E030C94C5030C940000CF93C62F20914E
:10012000100124FF07C02091110138E823272093F4
:10013000110103C02AE520931001DC01E2E1F1E0A6
:100140009C2F9E0F8D918193892F8E1B1816D4F3AF
:100150006C2F82E191E00E940A02CC5FC0931001F3
:10016000CF910895CF93DF9360912101635067FD94
:10017000C0C080911E01CCE0D0E0C81BD109CB5D8E
:10018000DE4F80911D018D3209F0A1C0683009F069
:10019000AEC083EC809305018AE580930101109243
:1001A00002018881807639F0CE010E946C038F3F76
:1001B00009F47CC082C09A8110920E01898181115C
:1001C00006C010920F012EE031E082E06AC0853057
:1001D00019F49093220162C0863009F049C08B81E6
:1001E000813019F48AE890E01AC0823041F488E640
:1001F00090E09093200180931F0182E235C083300C
:10020000F1F4911108C082EC90E09093200180936A
:100210001F0184E029C0913041F480EB90E090937D
:10022000200180931F0182E11FC09230E1F48CE92C
:1002300090E09093200180931F0184E115C08132EA
:1002400041F48AE790E09093200180931F0189E0B8
:100250000BC0823241F486EC90E0909320018093B1
:100260001F0186E101C080E090E49093020125C067
:10027000883069F0893019F4909324010FC08A30D6
:1002800049F08B3059F48BE48093110107C024E2CC
:1002900031E002C02EE031E081E003C02EE031E029
:1002A00080E03093200120931F0107C0988197FDC3
:1002B0008E8190E89093020107C09F81911104C044
:1002C0009E81981708F4892F8093000110C08091B7
:1002D000020187FF0CC0CE010E944A038F3F21F428
:1002E0008EE18093010103C08111109200011092F0
:1002F00021018091010184FF5EC0809100018F3F48
:1003000009F459C0C82F893008F0C8E08C1B8093CD
:1003100000018091050198E8892780930501CC238D
:10032000C1F18091020187FF09C06C2F86E091E046
:100330000E942F03C82F8930C0F52BC020911F01C8
:100340003091200186FF12C0A6E0B1E045E051E007
:1003500040955095420F531F8C2F8A0FFA01EA0FD8
:10036000FB1FE491ED938A13F9CF09C0E6E0F1E0B9
:10037000D9018C2F8E0F9D9191938E13FCCF2F5FFF
:100380003F4F8FEF8C0F280F311D309320012093AA
:100390001F016C2F86E091E00E940A02CC5FCC30F6
:1003A00041F08FEF8093000104C08FEF8093000134
:1003B000CEE1C093010184E199B1947131F481508F
:1003C000D9F71092220110921C01DF91CF9108956C
:1003D000E9E6F0E0808182608083E89A8BE4809394
:1003E00011018AE5809310010895A82FB92F80E0AC
:1003F00090E041E050EA609530E009C02D918227FD
:100400009795879510F084279527305EC8F36F5F26
:10041000A8F30895EADF8D939D930895CF93CFB706
:10042000CF93DF93C3954C9BE9F74C9B0BC04C9B40
:1004300009C04C9B07C04C9B05C04C9B03C04C9B08
:1004400001C08BC06F93C0911E01DD27CB5DDE4FD5
:100450002F9365E54C9B03C02F916F91E6CF0F93CF
:100460001F934F9320E040E15F9309B1047104FBB7
:1004700027F93F9350E03BE039C0147140642F7777
:10048000012F5F5F1EC0406819B114712F77525061
:100490001FC0406409B12F770471D1F15F5F00C0C4
:1004A00023C0406219B12F77147191F15F5F00C0D2
:1004B00025C004711027515012F45D5F00001150E7
:1004C00027952C3F19B1C8F61471012701502795C3
:1004D0002C3FC8F64227499309B1047110274F7386
:1004E000115027952C3FA8F64695469519B11471E1
:1004F00079F00127015027952C3F98F66B5A60F34D
:10050000315009B1B0F600C011E01CBB002719C082
:100510003B503195C31BD04011E01CBB0881033C0C
:1005200009F10B34F9F020911C011981110F1213FC
:10053000EDCF4A81441F093651F10D3211F0013ED1
:1005400029F7009323013F915F914F911F910F91E4
:100550002F916F91CCB3C0FD65CFDF91CF91CFBF0D
:10056000CF91189520912301222369F31091210145
:10057000112391F5343092F13093210120931D0124
:1005800010911E013BE0311B30931E0127C00091EA
:10059000210101300CF50AE54F7049F43091010159
:1005A00034FD1DC000930101C5E0D1E01CC03091B5
:1005B000100134FD14C000931001C1E1D1E013C05B
:1005C000052710E000C000000BB91AC0052710E095
:1005D000221F1DC010E021C04AE502C032ED432FAA
:1005E000C4E1D0E032E01AB114615C9A0BB11AB9DF
:1005F00054E120E865E320FF05270BB927951795FF
:100600001C3FF0F66695B8F7B1F720FF05270BB948
:10061000279517951C3FD0F62795179517FF0527A7
:1006200000001C3F0BB9B0F629913A9519F70B7EE3
:1006300010912201110FC651D0400BB911F0109347
:100640001C0111E01CBB00611AB11B7E402F4B7EC8
:1006500054E05A95F1F70BB91AB94BB974CFCF934F
:1006600020910301C62F261708F4C22F4C2F50E00B
:100670006091040170E00E949D03809104018C0F41
:1006800080930401809103018C1B809303018C2FC4
:10069000CF910895CF93209103012223D1F0C62F4B
:1006A000261708F4C22F4C2F50E06091040170E02F
:1006B0000E94AD03809104018C0F809304019091FE
:1006C00003019C1B9093030181E0992319F080E0C2
:1006D00001C081E0CF910895FC0120812076203275
:1006E00059F48181877F813039F480E88093030158
:1006F000109204018FEF089580E008952EE088E1C4
:1007000090E00FB6F894A895809360000FBE2093F8
:1007100060000E94E801549A80E0815041F0A89561
:10072000EFE9FFE03197F1F700C00000F6CF5498F1
:100730007894A8950E94B200FCCFDC01CB01FC01AB
:10074000F999FECF06C0F2BDE1BDF89A319600B42A
:100750000D9241505040B8F70895DC01CB0103C021
:100760002D910E94B80341505040D0F70895262F94
:10077000F999FECF1FBA92BD81BD20BD0FB6F89486
:0E078000FA9AF99A0FBE01960895F894FFCFE9
:02078E00FF5A10
:00000001FF
