:100000000C9479000C94EC010C9496000C949600DE
:100010000C9496000C9496000C9496000C94960008
:100020000C9496000C9496000C9496000C949600F8
:100030000C9496000C9496000C9496000C949600E8
:100040000C9496000C9496000C9496000C949600D8
:100050000C9496000C9496000C9496000C949600C8
:100060000C9496000C949600090222000101008075
:100070000A09040000010300000009210101000138
:1000800022340007058103080064120110010000FA
:100090000008C016E8030001010200010C034D0036
:1000A0006F0075007300650012036F00620064004A
:1000B000650076002E006100740004030904050148
:1000C0000902A1010901A10005091901290315006F
:1000D00025019503750181029501750581030501CF
:1000E0000930093109381581257F75089503810686
:1000F000C0C011241FBECFEFD4E0DEBFCDBF11E0E2
:10010000A0E0B1E0E4E2F7E002C005900D92A43077
:10011000B107D9F721E0A4E0B1E001C01D92A234FB
:10012000B207E1F70E942E030C9490030C94000098
:10013000CF93C62F2091170124FF07C020911801EB
:1001400038E823272093180103C02AE520931701DC
:10015000DC01E9E1F1E09C2F9E0F8D918193892FC5
:100160008E1B1816D4F36C2F89E191E00E94E801F0
:10017000CC5FC0931701CF910895CF93DF93809107
:100180002801835087FDA4C090912501209124016E
:100190002D3209F09BC0883009F098C0CCE0D0E047
:1001A000C91BD109C45DDE4F83EC80930C018AE545
:1001B00080930101109204018881807621F0CE01A4
:1001C0000E940D037AC09A811092150189818111D4
:1001D00006C01092160125E131E082E06AC0853048
:1001E00019F49093290162C0863009F049C08B81CF
:1001F000813019F48AE890E01AC0823041F488E630
:1002000090E0909327018093260182E235C08330ED
:10021000F1F4911108C08AEB90E09093270180934C
:10022000260184E029C0913041F488EA90E090935F
:1002300027018093260182E11FC09230E1F48CE90E
:1002400090E090932701809326018CE015C08132C5
:1002500041F48AE790E0909327018093260189E09A
:100260000BC0823241F48EEB90E090932701809393
:10027000260184E301C080E090E4909304011DC056
:10028000883069F0893019F490932B010FC08A30BF
:1002900049F08B3059F48BE48093180107C02BE2AE
:1002A00031E002C025E131E081E003C025E131E029
:1002B00080E030932701209326019F81911104C093
:1002C0009E81981708F4892F8093000110922801CD
:1002D0008091010184FF4DC0809100018F3F09F49E
:1002E00048C0C82F893008F0C8E08C1B80930001FB
:1002F00080910C0198E8892780930C01CC2361F14F
:1003000080912601909127012091040126FF12C0BF
:10031000ADE0B1E02CE031E020953095280F391F99
:100320004C2F4A0FF901EA0FFB1FE491ED934A139A
:10033000F9CF09C0EDE0F1E0DC012C2F2E0F3D914B
:1003400031932E13FCCF01962FEF2C0F820F911DAE
:1003500090932701809326016C2F8DE091E00E94FD
:10036000E801CC5FCC3019F08FEF80930001C0938F
:10037000010184E199B1947131F48150D9F710925F
:10038000290110922301DF91CF910895E9E6F0E071
:10039000808182608083E89A8BE4809318018AE5EB
:1003A000809317010895A82FB92F80E090E041E0D5
:1003B00050EA609530E009C02D9182279795879586
:1003C00010F084279527305EC8F36F5FA8F3089577
:1003D000EADF8D939D930895CF93CFB7CF93DF93AB
:1003E000C3954C9BE9F74C9B0BC04C9B09C04C9BA5
:1003F00007C04C9B05C04C9B03C04C9B01C08BC0ED
:100400006F93C0912501DD27C45DDE4F2F9365E515
:100410004C9B03C02F916F91E6CF0F931F934F9387
:1004200020E040E15F9309B1047104FB27F93F9399
:1004300050E03BE039C0147140642F77012F5F5FBB
:100440001EC0406819B114712F7752501FC040640C
:1004500009B12F770471D1F15F5F00C023C0406202
:1004600019B12F77147191F15F5F00C025C004713D
:100470001027515012F45D5F0000115027952C3F5A
:1004800019B1C8F614710127015027952C3FC8F601
:100490004227499309B1047110274F7311502795D2
:1004A0002C3FA8F64695469519B1147179F00127AD
:1004B000015027952C3F98F66B5A60F3315009B1E3
:1004C000B0F600C011E01CBB002719C03B503195AD
:1004D000C31BD04011E01CBB0881033C09F10B3465
:1004E000F9F0209123011981110F1213EDCF4A81E8
:1004F000441F093651F10D3211F0013E29F70093E6
:100500002A013F915F914F911F910F912F916F9110
:10051000CCB3C0FD65CFDF91CF91CFBFCF91189500
:1005200020912A01222369F310912801112391F5CA
:10053000343092F130932801209324011091250149
:100540003BE0311B3093250127C000912801013089
:100550000CF50AE54F7049F43091010134FD1DC0DE
:1005600000930101CCE0D1E01CC03091170134FDB3
:1005700014C000931701C8E1D1E013C0052710E0B3
:1005800000C000000BB91AC0052710E0221F1DC0D3
:1005900010E021C04AE502C032ED432FC4E1D0E0B3
:1005A00032E01AB114615C9A0BB11AB954E120E837
:1005B00065E320FF05270BB9279517951C3FF0F63B
:1005C0006695B8F7B1F720FF05270BB92795179562
:1005D0001C3FD0F62795179517FF052700001C3FF5
:1005E0000BB9B0F629913A9519F70B7E10912901B4
:1005F000110FC651D0400BB911F01093230111E037
:100600001CBB00611AB11B7E402F4B7E54E05A95F3
:10061000F1F70BB91AB94BB974CFFC018081807620
:100620008032D1F48181813041F488E091E090936F
:1006300027018093260184E00895823041F485E00B
:1006400091E0909327018093260181E008958A30FC
:1006500019F483818093050180E008952EE088E1FC
:1006600090E00FB6F894A895809360000FBE209399
:1006700060000E94C601549A80E0815041F0A89524
:10068000EFE9FFE03197F1F700C00000F6CF549892
:100690007894A8950E94BD008091170184FFF9CF3E
:1006A0004091060150910701141615061CF420E232
:1006B00030E002C020EE3FEF240F351F66E0359595
:1006C00027956A95E1F720930901809102019091A5
:1006D0000301820F911D27FD9A959093030180934A
:1006E0000201181619061CF420E230E002C020EEC8
:1006F0003FEF820F931F26E0959587952A95E1F7A6
:1007000080930A01481B510987FD539550930701B7
:100710004093060164E088E091E00E949800B9CF20
:04072000F894FFCF7B
:04072400FF5AC001B7
:00000001FF
